{
  "address": "0x6E24E10E0450B6868CaC141dD2acf266FBE00a3E",
  "abi": [
    {
      "inputs": [
        {
          "internalType": "contract IMapleCCTPReceiver",
          "name": "_MapleReceiver",
          "type": "address"
        }
      ],
      "stateMutability": "nonpayable",
      "type": "constructor"
    },
    {
      "anonymous": false,
      "inputs": [
        {
          "indexed": true,
          "internalType": "address",
          "name": "sponsor",
          "type": "address"
        },
        {
          "indexed": false,
          "internalType": "uint256",
          "name": "amount",
          "type": "uint256"
        }
      ],
      "name": "LogBridge",
      "type": "event"
    },
    {
      "inputs": [],
      "name": "DST_DOMAIN",
      "outputs": [
        {
          "internalType": "uint32",
          "name": "",
          "type": "uint32"
        }
      ],
      "stateMutability": "view",
      "type": "function"
    },
    {
      "inputs": [],
      "name": "DST_TOKEN",
      "outputs": [
        {
          "internalType": "contract IEIP3009Token",
          "name": "",
          "type": "address"
        }
      ],
      "stateMutability": "view",
      "type": "function"
    },
    {
      "inputs": [],
      "name": "MAPLE_RECEIVER",
      "outputs": [
        {
          "internalType": "contract IMapleCCTPReceiver",
          "name": "",
          "type": "address"
        }
      ],
      "stateMutability": "view",
      "type": "function"
    },
    {
      "inputs": [],
      "name": "SRC_TOKEN",
      "outputs": [
        {
          "internalType": "contract IEIP3009Token",
          "name": "",
          "type": "address"
        }
      ],
      "stateMutability": "view",
      "type": "function"
    },
    {
      "inputs": [],
      "name": "TOKEN_MESSENGER",
      "outputs": [
        {
          "internalType": "contract ITokenMessenger",
          "name": "",
          "type": "address"
        }
      ],
      "stateMutability": "view",
      "type": "function"
    },
    {
      "inputs": [
        {
          "internalType": "address",
          "name": "_owner",
          "type": "address"
        },
        {
          "internalType": "uint256",
          "name": "_amount",
          "type": "uint256"
        },
        {
          "components": [
            {
              "internalType": "uint256",
              "name": "validAfter",
              "type": "uint256"
            },
            {
              "internalType": "uint256",
              "name": "validBefore",
              "type": "uint256"
            },
            {
              "internalType": "bytes32",
              "name": "nonce",
              "type": "bytes32"
            },
            {
              "internalType": "uint8",
              "name": "v",
              "type": "uint8"
            },
            {
              "internalType": "bytes32",
              "name": "r",
              "type": "bytes32"
            },
            {
              "internalType": "bytes32",
              "name": "s",
              "type": "bytes32"
            }
          ],
          "internalType": "struct Authorization",
          "name": "_authorization",
          "type": "tuple"
        }
      ],
      "name": "bridgeAndDeposit",
      "outputs": [],
      "stateMutability": "nonpayable",
      "type": "function"
    }
  ],
  "transactionHash": "0xf3fce599ea3e9fa6cdb9e2df8f07dc42b2ed424dcc3a0747b6b80cb85b7ddde6",
  "args": [
    "0x63Ca4Cb241294Fa19b9EF32BE558CAC49Ac975B6"
  ],
  "numDeployments": 2,
  "solcInputHash": "86bb56801ea36a8de8570d1aabf9c73a",
  "bytecode": "0x60a0604052348015600f57600080fd5b506040516109c23803806109c2833981016040819052602c91603c565b6001600160a01b0316608052606a565b600060208284031215604d57600080fd5b81516001600160a01b0381168114606357600080fd5b9392505050565b6080516109306100926000396000818160dc0152818161030f01526103a301526109306000f3fe608060405234801561001057600080fd5b50600436106100725760003560e01c80636ae0cb98116100505780636ae0cb98146100fe5780637411a11514610113578063b8b32ff71461013057600080fd5b80631a7691ff146100775780631b726cfd146100bc57806337099da1146100d7575b600080fd5b610092731c7d4b196cb0c7b01d743fbc6116a902379c723881565b60405173ffffffffffffffffffffffffffffffffffffffff90911681526020015b60405180910390f35b61009273036cbd53842c5426634e7929541ec2318f3dcf7e81565b6100927f000000000000000000000000000000000000000000000000000000000000000081565b61011161010c36600461066e565b61014b565b005b61011b600081565b60405163ffffffff90911681526020016100b3565b610092739f3b8679c73c2fef8b59b4f3444d4e156fb70aa581565b73036cbd53842c5426634e7929541ec2318f3dcf7e63ef55bec684308585356020870135604088013561018460808a0160608b016106f0565b6040517fffffffff0000000000000000000000000000000000000000000000000000000060e08a901b16815273ffffffffffffffffffffffffffffffffffffffff978816600482015296909516602487015260448601939093526064850191909152608484015260a483015260ff1660c4820152608084013560e482015260a084013561010482015261012401600060405180830381600087803b15801561022b57600080fd5b505af115801561023f573d6000803e3d6000fd5b50506040517f095ea7b3000000000000000000000000000000000000000000000000000000008152739f3b8679c73c2fef8b59b4f3444d4e156fb70aa560048201526024810185905273036cbd53842c5426634e7929541ec2318f3dcf7e925063095ea7b391506044016020604051808303816000875af11580156102c8573d6000803e3d6000fd5b505050506040513d601f19601f820116820180604052508101906102ec919061071a565b506040810135600061033382731c7d4b196cb0c7b01d743fbc6116a902379c72387f000000000000000000000000000000000000000000000000000000000000000061048d565b604080517ff856ddb60000000000000000000000000000000000000000000000000000000081526004810187905260006024820181905273ffffffffffffffffffffffffffffffffffffffff808516604484015273036cbd53842c5426634e7929541ec2318f3dcf7e60648401527f00000000000000000000000000000000000000000000000000000000000000001660848301529151929350739f3b8679c73c2fef8b59b4f3444d4e156fb70aa59263f856ddb69260a4808401936020939290839003909101908290875af1158015610411573d6000803e3d6000fd5b505050506040513d601f19601f82011682018060405250810190610435919061073c565b508173ffffffffffffffffffffffffffffffffffffffff167ffc793a8fbfd41e692f3d560884a4cf823ed1fad56a3dacd06a162aa56bf87bbf8560405161047e91815260200190565b60405180910390a25050505050565b6040517fffffffffffffffffffffffffffffffffffffffff000000000000000000000000606085901b16602082015260009081907fff00000000000000000000000000000000000000000000000000000000000000908490603401604051602081830303815290604052805190602001206040518060200161050e90610661565b7fffffffffffffffffffffffffffffffffffffffffffffffffffffffffffffffe082820381018352601f90910116604081815273ffffffffffffffffffffffffffffffffffffffff8a16602083015201604080517fffffffffffffffffffffffffffffffffffffffffffffffffffffffffffffffe08184030181529082905261059a9291602001610796565b6040516020818303038152906040528051906020012060405160200161062294939291907fff0000000000000000000000000000000000000000000000000000000000000094909416845260609290921b7fffffffffffffffffffffffffffffffffffffffff0000000000000000000000001660018401526015830152603582015260550190565b604080518083037fffffffffffffffffffffffffffffffffffffffffffffffffffffffffffffffe0018152919052805160209091012095945050505050565b610147806107b483390190565b600080600083850361010081121561068557600080fd5b843573ffffffffffffffffffffffffffffffffffffffff811681146106a957600080fd5b93506020850135925060c07fffffffffffffffffffffffffffffffffffffffffffffffffffffffffffffffc0820112156106e257600080fd5b506040840190509250925092565b60006020828403121561070257600080fd5b813560ff8116811461071357600080fd5b9392505050565b60006020828403121561072c57600080fd5b8151801515811461071357600080fd5b60006020828403121561074e57600080fd5b815167ffffffffffffffff8116811461071357600080fd5b6000815160005b81811015610787576020818501810151868301520161076d565b50600093019283525090919050565b60006107ab6107a58386610766565b84610766565b94935050505056fe608060405234801561001057600080fd5b5060405161014738038061014783398101604081905261002f916100a8565b60405163095ea7b360e01b815233600482015260001960248201526001600160a01b0382169063095ea7b3906044016020604051808303816000875af115801561007d573d6000803e3d6000fd5b505050506040513d601f19601f820116820180604052508101906100a191906100d8565b50506100fa565b6000602082840312156100ba57600080fd5b81516001600160a01b03811681146100d157600080fd5b9392505050565b6000602082840312156100ea57600080fd5b815180151581146100d157600080fd5b603f806101086000396000f3fe6080604052600080fdfea2646970667358221220a42c2eb9cb1c29af1619d974cd71186456bb22ec12ecff34b194cef6048eae6b64736f6c63430008190033a2646970667358221220c8b27e357c5003c63c6cd639dd47373bd92fdcec61a2af5208ecf820851c709164736f6c63430008190033",
  "devdoc": {
    "kind": "dev",
    "methods": {},
    "version": 1
  },
  "userdoc": {
    "kind": "user",
    "methods": {},
    "version": 1
  },
  "storageLayout": {
    "storage": [],
    "types": null
  }
}