{
  "address": "0x44c430447B6CF9E496a349Fc8F10967B43922371",
  "abi": [
    {
      "inputs": [
        {
          "internalType": "uint32",
          "name": "_dstDomain",
          "type": "uint32"
        },
        {
          "internalType": "contract IEIP3009Token",
          "name": "_srcToken",
          "type": "address"
        },
        {
          "internalType": "contract IEIP3009Token",
          "name": "_dstToken",
          "type": "address"
        },
        {
          "internalType": "contract ITokenMessenger",
          "name": "_tokenMessenger",
          "type": "address"
        },
        {
          "internalType": "contract IGelato1BalanceCCTPReceiver",
          "name": "_gelato1BalanceReceiver",
          "type": "address"
        }
      ],
      "stateMutability": "nonpayable",
      "type": "constructor"
    },
    {
      "anonymous": false,
      "inputs": [
        {
          "indexed": true,
          "internalType": "address",
          "name": "sponsor",
          "type": "address"
        },
        {
          "indexed": false,
          "internalType": "uint256",
          "name": "amount",
          "type": "uint256"
        }
      ],
      "name": "LogBridge",
      "type": "event"
    },
    {
      "inputs": [],
      "name": "DST_DOMAIN",
      "outputs": [
        {
          "internalType": "uint32",
          "name": "",
          "type": "uint32"
        }
      ],
      "stateMutability": "view",
      "type": "function"
    },
    {
      "inputs": [],
      "name": "DST_TOKEN",
      "outputs": [
        {
          "internalType": "contract IEIP3009Token",
          "name": "",
          "type": "address"
        }
      ],
      "stateMutability": "view",
      "type": "function"
    },
    {
      "inputs": [],
      "name": "GELATO_1BALANCE_RECEIVER",
      "outputs": [
        {
          "internalType": "contract IGelato1BalanceCCTPReceiver",
          "name": "",
          "type": "address"
        }
      ],
      "stateMutability": "view",
      "type": "function"
    },
    {
      "inputs": [],
      "name": "SRC_TOKEN",
      "outputs": [
        {
          "internalType": "contract IEIP3009Token",
          "name": "",
          "type": "address"
        }
      ],
      "stateMutability": "view",
      "type": "function"
    },
    {
      "inputs": [],
      "name": "TOKEN_MESSENGER",
      "outputs": [
        {
          "internalType": "contract ITokenMessenger",
          "name": "",
          "type": "address"
        }
      ],
      "stateMutability": "view",
      "type": "function"
    },
    {
      "inputs": [
        {
          "internalType": "address",
          "name": "_owner",
          "type": "address"
        },
        {
          "internalType": "uint256",
          "name": "_amount",
          "type": "uint256"
        },
        {
          "components": [
            {
              "internalType": "uint256",
              "name": "validAfter",
              "type": "uint256"
            },
            {
              "internalType": "uint256",
              "name": "validBefore",
              "type": "uint256"
            },
            {
              "internalType": "bytes32",
              "name": "nonce",
              "type": "bytes32"
            },
            {
              "internalType": "uint8",
              "name": "v",
              "type": "uint8"
            },
            {
              "internalType": "bytes32",
              "name": "r",
              "type": "bytes32"
            },
            {
              "internalType": "bytes32",
              "name": "s",
              "type": "bytes32"
            }
          ],
          "internalType": "struct Authorization",
          "name": "_authorization",
          "type": "tuple"
        }
      ],
      "name": "bridgeAndDeposit",
      "outputs": [],
      "stateMutability": "nonpayable",
      "type": "function"
    }
  ],
  "transactionHash": "0x6b20d8e22a592bff4cf2835d024a4e8c904135653aaddd78432d0e76794e1a4d",
  "args": [
    7,
    "0x833589fCD6eDb6E08f4c7C32D4f71b54bdA02913",
    "0x3c499c542cEF5E3811e1192ce70d8cC03d5c3359",
    "0x1682Ae6375C4E4A97e4B583BC394c861A46D8962",
    "0x99746A0dCc24492207Ba95A458e9fA036f48e53e"
  ],
  "numDeployments": 1,
  "solcInputHash": "07b8fb77ccf080c8c773dda681f2d3fe",
  "bytecode": "0x61012060405234801561001157600080fd5b506040516113ab3803806113ab83398101604081905261003091610076565b63ffffffff9094166080526001600160a01b0392831660a05290821660c052811660e05216610100526100f4565b6001600160a01b038116811461007357600080fd5b50565b600080600080600060a0868803121561008e57600080fd5b855163ffffffff811681146100a257600080fd5b60208701519095506100b38161005e565b60408701519094506100c48161005e565b60608701519093506100d58161005e565b60808701519092506100e68161005e565b809150509295509295909350565b60805160a05160c05160e051610100516112366101756000396000818161016c015281816104600152610539015260008181610145015281816103900152610488015260008181607c015261043f01526000818160cd01528181610219015281816103c2015261050301526000818161010901526104c501526112366000f3fe608060405234801561001057600080fd5b50600436106100725760003560e01c80637411a115116100505780637411a11514610104578063b8b32ff714610140578063e739e04f1461016757600080fd5b80631a7691ff146100775780631b726cfd146100c85780636ae0cb98146100ef575b600080fd5b61009e7f000000000000000000000000000000000000000000000000000000000000000081565b60405173ffffffffffffffffffffffffffffffffffffffff90911681526020015b60405180910390f35b61009e7f000000000000000000000000000000000000000000000000000000000000000081565b6101026100fd366004610ec7565b61018e565b005b61012b7f000000000000000000000000000000000000000000000000000000000000000081565b60405163ffffffff90911681526020016100bf565b61009e7f000000000000000000000000000000000000000000000000000000000000000081565b61009e7f000000000000000000000000000000000000000000000000000000000000000081565b61019733610662565b610202576040517f08c379a000000000000000000000000000000000000000000000000000000000815260206004820152600f60248201527f6f6e6c7947656c61746f52656c6179000000000000000000000000000000000060448201526064015b60405180910390fd5b73ffffffffffffffffffffffffffffffffffffffff7f00000000000000000000000000000000000000000000000000000000000000001663ef55bec684308585356020870135604088013561025d60808a0160608b01610f49565b6040517fffffffff0000000000000000000000000000000000000000000000000000000060e08a901b16815273ffffffffffffffffffffffffffffffffffffffff978816600482015296909516602487015260448601939093526064850191909152608484015260a483015260ff1660c4820152608084013560e482015260a084013561010482015261012401600060405180830381600087803b15801561030457600080fd5b505af1158015610318573d6000803e3d6000fd5b505050506103246106df565b60006103537fffffffffffffffffffffffffffffffffffffffffffffffffffffffffffffffe036013584610f73565b6040517f095ea7b300000000000000000000000000000000000000000000000000000000815273ffffffffffffffffffffffffffffffffffffffff7f000000000000000000000000000000000000000000000000000000000000000081166004830152602482018390529192507f00000000000000000000000000000000000000000000000000000000000000009091169063095ea7b3906044016020604051808303816000875af115801561040d573d6000803e3d6000fd5b505050506040513d601f19601f820116820180604052508101906104319190610fad565b5060408201356000610484827f00000000000000000000000000000000000000000000000000000000000000007f0000000000000000000000000000000000000000000000000000000000000000610773565b90507f000000000000000000000000000000000000000000000000000000000000000073ffffffffffffffffffffffffffffffffffffffff1663f856ddb6847f00000000000000000000000000000000000000000000000000000000000000006105018573ffffffffffffffffffffffffffffffffffffffff1690565b7f000000000000000000000000000000000000000000000000000000000000000073ffffffffffffffffffffffffffffffffffffffff7f0000000000000000000000000000000000000000000000000000000000000000166040517fffffffff0000000000000000000000000000000000000000000000000000000060e088901b168152600481019590955263ffffffff939093166024850152604484019190915273ffffffffffffffffffffffffffffffffffffffff166064830152608482015260a4016020604051808303816000875af11580156105e5573d6000803e3d6000fd5b505050506040513d601f19601f820116820180604052508101906106099190610fcf565b508173ffffffffffffffffffffffffffffffffffffffff167ffc793a8fbfd41e692f3d560884a4cf823ed1fad56a3dacd06a162aa56bf87bbf8660405161065291815260200190565b60405180910390a2505050505050565b6000466101441480610675575046610118145b6106ab5773ffffffffffffffffffffffffffffffffffffffff821673abcc9b596420a9e9172fd5938620e265a0f9df92146106d9565b73ffffffffffffffffffffffffffffffffffffffff821673b16a1dbe755f992636705fdbb3a8678a657eb3ea145b92915050565b610771367fffffffffffffffffffffffffffffffffffffffffffffffffffffffffffffffb8013560601c367fffffffffffffffffffffffffffffffffffffffffffffffffffffffffffffffe00135367fffffffffffffffffffffffffffffffffffffffffffffffffffffffffffffffcc013560601c73ffffffffffffffffffffffffffffffffffffffff169190610947565b565b6040517fffffffffffffffffffffffffffffffffffffffff000000000000000000000000606085901b16602082015260009081907fff0000000000000000000000000000000000000000000000000000000000000090849060340160405160208183030381529060405280519060200120604051806020016107f490610eba565b7fffffffffffffffffffffffffffffffffffffffffffffffffffffffffffffffe082820381018352601f90910116604081815273ffffffffffffffffffffffffffffffffffffffff8a16602083015201604080517fffffffffffffffffffffffffffffffffffffffffffffffffffffffffffffffe081840301815290829052610880929160200161101d565b6040516020818303038152906040528051906020012060405160200161090894939291907fff0000000000000000000000000000000000000000000000000000000000000094909416845260609290921b7fffffffffffffffffffffffffffffffffffffffff0000000000000000000000001660018401526015830152603582015260550190565b604080518083037fffffffffffffffffffffffffffffffffffffffffffffffffffffffffffffffe0018152919052805160209091012095945050505050565b8060000361095457505050565b73ffffffffffffffffffffffffffffffffffffffff831673eeeeeeeeeeeeeeeeeeeeeeeeeeeeeeeeeeeeeeee146109ab576109a673ffffffffffffffffffffffffffffffffffffffff841683836109b5565b505050565b6109a68282610a42565b6040805173ffffffffffffffffffffffffffffffffffffffff8416602482015260448082018490528251808303909101815260649091019091526020810180517bffffffffffffffffffffffffffffffffffffffffffffffffffffffff167fa9059cbb000000000000000000000000000000000000000000000000000000001790526109a6908490610b9c565b80471015610aac576040517f08c379a000000000000000000000000000000000000000000000000000000000815260206004820152601d60248201527f416464726573733a20696e73756666696369656e742062616c616e636500000060448201526064016101f9565b60008273ffffffffffffffffffffffffffffffffffffffff168260405160006040518083038185875af1925050503d8060008114610b06576040519150601f19603f3d011682016040523d82523d6000602084013e610b0b565b606091505b50509050806109a6576040517f08c379a000000000000000000000000000000000000000000000000000000000815260206004820152603a60248201527f416464726573733a20756e61626c6520746f2073656e642076616c75652c207260448201527f6563697069656e74206d6179206861766520726576657274656400000000000060648201526084016101f9565b6000610bfe826040518060400160405280602081526020017f5361666545524332303a206c6f772d6c6576656c2063616c6c206661696c65648152508573ffffffffffffffffffffffffffffffffffffffff16610cab9092919063ffffffff16565b9050805160001480610c1f575080806020019051810190610c1f9190610fad565b6109a6576040517f08c379a000000000000000000000000000000000000000000000000000000000815260206004820152602a60248201527f5361666545524332303a204552433230206f7065726174696f6e20646964206e60448201527f6f7420737563636565640000000000000000000000000000000000000000000060648201526084016101f9565b6060610cba8484600085610cc2565b949350505050565b606082471015610d54576040517f08c379a000000000000000000000000000000000000000000000000000000000815260206004820152602660248201527f416464726573733a20696e73756666696369656e742062616c616e636520666f60448201527f722063616c6c000000000000000000000000000000000000000000000000000060648201526084016101f9565b6000808673ffffffffffffffffffffffffffffffffffffffff168587604051610d7d919061104c565b60006040518083038185875af1925050503d8060008114610dba576040519150601f19603f3d011682016040523d82523d6000602084013e610dbf565b606091505b5091509150610dd087838387610ddb565b979650505050505050565b60608315610e71578251600003610e6a5773ffffffffffffffffffffffffffffffffffffffff85163b610e6a576040517f08c379a000000000000000000000000000000000000000000000000000000000815260206004820152601d60248201527f416464726573733a2063616c6c20746f206e6f6e2d636f6e747261637400000060448201526064016101f9565b5081610cba565b610cba8383815115610e865781518083602001fd5b806040517f08c379a00000000000000000000000000000000000000000000000000000000081526004016101f99190611068565b610147806110ba83390190565b6000806000838503610100811215610ede57600080fd5b843573ffffffffffffffffffffffffffffffffffffffff81168114610f0257600080fd5b93506020850135925060c07fffffffffffffffffffffffffffffffffffffffffffffffffffffffffffffffc082011215610f3b57600080fd5b506040840190509250925092565b600060208284031215610f5b57600080fd5b813560ff81168114610f6c57600080fd5b9392505050565b818103818111156106d9577f4e487b7100000000000000000000000000000000000000000000000000000000600052601160045260246000fd5b600060208284031215610fbf57600080fd5b81518015158114610f6c57600080fd5b600060208284031215610fe157600080fd5b815167ffffffffffffffff81168114610f6c57600080fd5b60005b83811015611014578181015183820152602001610ffc565b50506000910152565b6000835161102f818460208801610ff9565b835190830190611043818360208801610ff9565b01949350505050565b6000825161105e818460208701610ff9565b9190910192915050565b6020815260008251806020840152611087816040850160208701610ff9565b601f017fffffffffffffffffffffffffffffffffffffffffffffffffffffffffffffffe016919091016040019291505056fe608060405234801561001057600080fd5b5060405161014738038061014783398101604081905261002f916100a8565b60405163095ea7b360e01b815233600482015260001960248201526001600160a01b0382169063095ea7b3906044016020604051808303816000875af115801561007d573d6000803e3d6000fd5b505050506040513d601f19601f820116820180604052508101906100a191906100d8565b50506100fa565b6000602082840312156100ba57600080fd5b81516001600160a01b03811681146100d157600080fd5b9392505050565b6000602082840312156100ea57600080fd5b815180151581146100d157600080fd5b603f806101086000396000f3fe6080604052600080fdfea2646970667358221220580b4babf7e393a39a2b94d5a473c5e495fbc10ff253fc94bee162ee6470381664736f6c63430008190033a26469706673582212204b40349a557968c264c7956b2762ad0114d86388cd8cc3fbff1901074d0ecafb64736f6c63430008190033",
  "devdoc": {
    "kind": "dev",
    "methods": {},
    "version": 1
  },
  "userdoc": {
    "kind": "user",
    "methods": {},
    "version": 1
  },
  "storageLayout": {
    "storage": [],
    "types": null
  }
}