{
  "address": "0x63Ca4Cb241294Fa19b9EF32BE558CAC49Ac975B6",
  "abi": [
    {
      "inputs": [
        {
          "internalType": "contract IMaplePool",
          "name": "_maplePool",
          "type": "address"
        }
      ],
      "stateMutability": "nonpayable",
      "type": "constructor"
    },
    {
      "inputs": [],
      "name": "VaultNotMintRecipient",
      "type": "error"
    },
    {
      "inputs": [],
      "name": "MAPLE_POOL",
      "outputs": [
        {
          "internalType": "contract IMaplePool",
          "name": "",
          "type": "address"
        }
      ],
      "stateMutability": "view",
      "type": "function"
    },
    {
      "inputs": [],
      "name": "MESSAGE_TRANSMITTER",
      "outputs": [
        {
          "internalType": "contract IMessageTransmitter",
          "name": "",
          "type": "address"
        }
      ],
      "stateMutability": "view",
      "type": "function"
    },
    {
      "inputs": [],
      "name": "TOKEN",
      "outputs": [
        {
          "internalType": "contract IEIP3009Token",
          "name": "",
          "type": "address"
        }
      ],
      "stateMutability": "view",
      "type": "function"
    },
    {
      "inputs": [
        {
          "internalType": "address",
          "name": "_sponsor",
          "type": "address"
        },
        {
          "internalType": "bytes",
          "name": "_message",
          "type": "bytes"
        },
        {
          "internalType": "bytes",
          "name": "_attestation",
          "type": "bytes"
        }
      ],
      "name": "receiveAndDeposit",
      "outputs": [],
      "stateMutability": "nonpayable",
      "type": "function"
    },
    {
      "inputs": [
        {
          "internalType": "address",
          "name": "_sponsor",
          "type": "address"
        },
        {
          "internalType": "bytes",
          "name": "_message",
          "type": "bytes"
        },
        {
          "internalType": "bytes",
          "name": "_attestation",
          "type": "bytes"
        }
      ],
      "name": "receiveAndDepositSyncFee",
      "outputs": [],
      "stateMutability": "nonpayable",
      "type": "function"
    }
  ],
  "transactionHash": "0x1871a6dab56f69aae5083efab33645f66032473d2b0936ebe4ee56359335a197",
  "args": [
    "0x5F9b60A530dcc81b48Cd1d6B675EF9A766BBA326"
  ],
  "numDeployments": 1,
  "solcInputHash": "86bb56801ea36a8de8570d1aabf9c73a",
  "bytecode": "0x60a0604052348015600f57600080fd5b506040516114ec3803806114ec833981016040819052602c91603c565b6001600160a01b0316608052606a565b600060208284031215604d57600080fd5b81516001600160a01b0381168114606357600080fd5b9392505050565b60805161144c6100a060003960008181607101528181610213015281816102f1015281816103a20152610480015261144c6000f3fe608060405234801561001057600080fd5b50600436106100675760003560e01c8063b6a84a5f11610050578063b6a84a5f146100d7578063de73363c146100f2578063f67784f81461010757600080fd5b806346ac8bd51461006c57806382bfefc8146100bc575b600080fd5b6100937f000000000000000000000000000000000000000000000000000000000000000081565b60405173ffffffffffffffffffffffffffffffffffffffff909116815260200160405180910390f35b610093731c7d4b196cb0c7b01d743fbc6116a902379c723881565b610093737865fafc2db2093669d92c0f33aeef291086befd81565b610105610100366004611019565b61011a565b005b610105610115366004611019565b610356565b610123336104e4565b61018e576040517f08c379a000000000000000000000000000000000000000000000000000000000815260206004820152600f60248201527f6f6e6c7947656c61746f52656c6179000000000000000000000000000000000060448201526064015b60405180910390fd5b600061019d8686868686610561565b90506101a76106dd565b60006101d67fffffffffffffffffffffffffffffffffffffffffffffffffffffffffffffffe0360135836110e4565b6040517f095ea7b300000000000000000000000000000000000000000000000000000000815273ffffffffffffffffffffffffffffffffffffffff7f000000000000000000000000000000000000000000000000000000000000000016600482015260248101829052909150731c7d4b196cb0c7b01d743fbc6116a902379c72389063095ea7b3906044016020604051808303816000875af1158015610280573d6000803e3d6000fd5b505050506040513d601f19601f820116820180604052508101906102a491906110f7565b506040517f338b5dea00000000000000000000000000000000000000000000000000000000815273ffffffffffffffffffffffffffffffffffffffff8881166004830152602482018390527f0000000000000000000000000000000000000000000000000000000000000000169063338b5dea90604401600060405180830381600087803b15801561033557600080fd5b505af1158015610349573d6000803e3d6000fd5b5050505050505050505050565b60006103658686868686610561565b6040517f095ea7b300000000000000000000000000000000000000000000000000000000815273ffffffffffffffffffffffffffffffffffffffff7f000000000000000000000000000000000000000000000000000000000000000016600482015260248101829052909150731c7d4b196cb0c7b01d743fbc6116a902379c72389063095ea7b3906044016020604051808303816000875af115801561040f573d6000803e3d6000fd5b505050506040513d601f19601f8201168201806040525081019061043391906110f7565b506040517f338b5dea00000000000000000000000000000000000000000000000000000000815273ffffffffffffffffffffffffffffffffffffffff8781166004830152602482018390527f0000000000000000000000000000000000000000000000000000000000000000169063338b5dea90604401600060405180830381600087803b1580156104c457600080fd5b505af11580156104d8573d6000803e3d6000fd5b50505050505050505050565b60004661014414806104f7575046610118145b61052d5773ffffffffffffffffffffffffffffffffffffffff821673abcc9b596420a9e9172fd5938620e265a0f9df921461055b565b73ffffffffffffffffffffffffffffffffffffffff821673b16a1dbe755f992636705fdbb3a8678a657eb3ea145b92915050565b60008061056d87610771565b905061057a8187876107c1565b6040517f57ecfd28000000000000000000000000000000000000000000000000000000008152737865fafc2db2093669d92c0f33aeef291086befd906357ecfd28906105d0908990899089908990600401611169565b6020604051808303816000875af11580156105ef573d6000803e3d6000fd5b505050506040513d601f19601f8201168201806040525081019061061391906110f7565b5061061e8686610834565b6040517f23b872dd00000000000000000000000000000000000000000000000000000000815273ffffffffffffffffffffffffffffffffffffffff8316600482015230602482015260448101829052909250731c7d4b196cb0c7b01d743fbc6116a902379c7238906323b872dd906064016020604051808303816000875af11580156106ae573d6000803e3d6000fd5b505050506040513d601f19601f820116820180604052508101906106d291906110f7565b505095945050505050565b61076f367fffffffffffffffffffffffffffffffffffffffffffffffffffffffffffffffb8013560601c367fffffffffffffffffffffffffffffffffffffffffffffffffffffffffffffffe00135367fffffffffffffffffffffffffffffffffffffffffffffffffffffffffffffffcc013560601c73ffffffffffffffffffffffffffffffffffffffff169190610868565b565b600061079282731c7d4b196cb0c7b01d743fbc6116a902379c7238306108d1565b90508073ffffffffffffffffffffffffffffffffffffffff163b6000036107bc576107bc82610aa5565b919050565b6107cb8282610b4b565b73ffffffffffffffffffffffffffffffffffffffff168373ffffffffffffffffffffffffffffffffffffffff161461082f576040517f984af80f00000000000000000000000000000000000000000000000000000000815260040160405180910390fd5b505050565b600080838361084560746044611190565b60ff16908092610857939291906111a9565b610860916111d3565b949350505050565b8060000361087557505050565b73ffffffffffffffffffffffffffffffffffffffff831673eeeeeeeeeeeeeeeeeeeeeeeeeeeeeeeeeeeeeeee146108c75761082f73ffffffffffffffffffffffffffffffffffffffff84168383610b5c565b61082f8282610be9565b6040517fffffffffffffffffffffffffffffffffffffffff000000000000000000000000606085901b16602082015260009081907fff00000000000000000000000000000000000000000000000000000000000000908490603401604051602081830303815290604052805190602001206040518060200161095290610fc3565b7fffffffffffffffffffffffffffffffffffffffffffffffffffffffffffffffe082820381018352601f90910116604081815273ffffffffffffffffffffffffffffffffffffffff8a16602083015201604080517fffffffffffffffffffffffffffffffffffffffffffffffffffffffffffffffe0818403018152908290526109de9291602001611233565b60405160208183030381529060405280519060200120604051602001610a6694939291907fff0000000000000000000000000000000000000000000000000000000000000094909416845260609290921b7fffffffffffffffffffffffffffffffffffffffff0000000000000000000000001660018401526015830152603582015260550190565b604080518083037fffffffffffffffffffffffffffffffffffffffffffffffffffffffffffffffe0018152919052805160209091012095945050505050565b6040517fffffffffffffffffffffffffffffffffffffffff000000000000000000000000606083901b16602082015260340160405160208183030381529060405280519060200120731c7d4b196cb0c7b01d743fbc6116a902379c7238604051610b0e90610fc3565b73ffffffffffffffffffffffffffffffffffffffff90911681526020018190604051809103906000f590508015801561082f573d6000803e3d6000fd5b600080838361084560746024611190565b6040805173ffffffffffffffffffffffffffffffffffffffff8416602482015260448082018490528251808303909101815260649091019091526020810180517bffffffffffffffffffffffffffffffffffffffffffffffffffffffff167fa9059cbb0000000000000000000000000000000000000000000000000000000017905261082f908490610d43565b80471015610c53576040517f08c379a000000000000000000000000000000000000000000000000000000000815260206004820152601d60248201527f416464726573733a20696e73756666696369656e742062616c616e63650000006044820152606401610185565b60008273ffffffffffffffffffffffffffffffffffffffff168260405160006040518083038185875af1925050503d8060008114610cad576040519150601f19603f3d011682016040523d82523d6000602084013e610cb2565b606091505b505090508061082f576040517f08c379a000000000000000000000000000000000000000000000000000000000815260206004820152603a60248201527f416464726573733a20756e61626c6520746f2073656e642076616c75652c207260448201527f6563697069656e74206d617920686176652072657665727465640000000000006064820152608401610185565b6000610da5826040518060400160405280602081526020017f5361666545524332303a206c6f772d6c6576656c2063616c6c206661696c65648152508573ffffffffffffffffffffffffffffffffffffffff16610e529092919063ffffffff16565b9050805160001480610dc6575080806020019051810190610dc691906110f7565b61082f576040517f08c379a000000000000000000000000000000000000000000000000000000000815260206004820152602a60248201527f5361666545524332303a204552433230206f7065726174696f6e20646964206e60448201527f6f742073756363656564000000000000000000000000000000000000000000006064820152608401610185565b60606108608484600085856000808673ffffffffffffffffffffffffffffffffffffffff168587604051610e869190611262565b60006040518083038185875af1925050503d8060008114610ec3576040519150601f19603f3d011682016040523d82523d6000602084013e610ec8565b606091505b5091509150610ed987838387610ee4565b979650505050505050565b60608315610f7a578251600003610f735773ffffffffffffffffffffffffffffffffffffffff85163b610f73576040517f08c379a000000000000000000000000000000000000000000000000000000000815260206004820152601d60248201527f416464726573733a2063616c6c20746f206e6f6e2d636f6e74726163740000006044820152606401610185565b5081610860565b6108608383815115610f8f5781518083602001fd5b806040517f08c379a0000000000000000000000000000000000000000000000000000000008152600401610185919061127e565b610147806112d083390190565b60008083601f840112610fe257600080fd5b50813567ffffffffffffffff811115610ffa57600080fd5b60208301915083602082850101111561101257600080fd5b9250929050565b60008060008060006060868803121561103157600080fd5b853573ffffffffffffffffffffffffffffffffffffffff8116811461105557600080fd5b9450602086013567ffffffffffffffff8082111561107257600080fd5b61107e89838a01610fd0565b9096509450604088013591508082111561109757600080fd5b506110a488828901610fd0565b969995985093965092949392505050565b7f4e487b7100000000000000000000000000000000000000000000000000000000600052601160045260246000fd5b8181038181111561055b5761055b6110b5565b60006020828403121561110957600080fd5b8151801515811461111957600080fd5b9392505050565b8183528181602085013750600060208284010152600060207fffffffffffffffffffffffffffffffffffffffffffffffffffffffffffffffe0601f840116840101905092915050565b60408152600061117d604083018688611120565b8281036020840152610ed9818587611120565b60ff818116838216019081111561055b5761055b6110b5565b600080858511156111b957600080fd5b838611156111c657600080fd5b5050820193919092039150565b8035602083101561055b577fffffffffffffffffffffffffffffffffffffffffffffffffffffffffffffffff602084900360031b1b1692915050565b60005b8381101561122a578181015183820152602001611212565b50506000910152565b6000835161124581846020880161120f565b83519083019061125981836020880161120f565b01949350505050565b6000825161127481846020870161120f565b9190910192915050565b602081526000825180602084015261129d81604085016020870161120f565b601f017fffffffffffffffffffffffffffffffffffffffffffffffffffffffffffffffe016919091016040019291505056fe608060405234801561001057600080fd5b5060405161014738038061014783398101604081905261002f916100a8565b60405163095ea7b360e01b815233600482015260001960248201526001600160a01b0382169063095ea7b3906044016020604051808303816000875af115801561007d573d6000803e3d6000fd5b505050506040513d601f19601f820116820180604052508101906100a191906100d8565b50506100fa565b6000602082840312156100ba57600080fd5b81516001600160a01b03811681146100d157600080fd5b9392505050565b6000602082840312156100ea57600080fd5b815180151581146100d157600080fd5b603f806101086000396000f3fe6080604052600080fdfea2646970667358221220a42c2eb9cb1c29af1619d974cd71186456bb22ec12ecff34b194cef6048eae6b64736f6c63430008190033a2646970667358221220d6873125604bd600cff9a3b7a1e3bbdefd9b6d51c85e5bd77650f311d757a89f64736f6c63430008190033",
  "devdoc": {
    "kind": "dev",
    "methods": {},
    "version": 1
  },
  "userdoc": {
    "kind": "user",
    "methods": {},
    "version": 1
  },
  "storageLayout": {
    "storage": [],
    "types": null
  }
}