{
  "address": "0x5F9b60A530dcc81b48Cd1d6B675EF9A766BBA326",
  "abi": [
    {
      "inputs": [],
      "name": "TOKEN",
      "outputs": [
        {
          "internalType": "contract IERC20",
          "name": "",
          "type": "address"
        }
      ],
      "stateMutability": "view",
      "type": "function"
    },
    {
      "inputs": [
        {
          "internalType": "address",
          "name": "",
          "type": "address"
        }
      ],
      "name": "balances",
      "outputs": [
        {
          "internalType": "uint256",
          "name": "",
          "type": "uint256"
        }
      ],
      "stateMutability": "view",
      "type": "function"
    },
    {
      "inputs": [
        {
          "internalType": "address",
          "name": "sponsor",
          "type": "address"
        },
        {
          "internalType": "uint256",
          "name": "amount",
          "type": "uint256"
        }
      ],
      "name": "depositToken",
      "outputs": [],
      "stateMutability": "nonpayable",
      "type": "function"
    }
  ],
  "transactionHash": "0xdb3d31579b42a4de9d655a70b005c38a78b910ce231a75240cabf9c8eebd08c4",
  "args": [],
  "numDeployments": 1,
  "solcInputHash": "86bb56801ea36a8de8570d1aabf9c73a",
  "bytecode": "0x6080604052348015600f57600080fd5b506102d58061001f6000396000f3fe608060405234801561001057600080fd5b50600436106100415760003560e01c806327e235e314610046578063338b5dea1461007957806382bfefc81461008e575b600080fd5b6100666100543660046101f1565b60006020819052908152604090205481565b6040519081526020015b60405180910390f35b61008c610087366004610213565b6100ce565b005b6100a9731c7d4b196cb0c7b01d743fbc6116a902379c723881565b60405173ffffffffffffffffffffffffffffffffffffffff9091168152602001610070565b6040517f23b872dd00000000000000000000000000000000000000000000000000000000815233600482015230602482015260448101829052731c7d4b196cb0c7b01d743fbc6116a902379c7238906323b872dd906064016020604051808303816000875af1158015610145573d6000803e3d6000fd5b505050506040513d601f19601f82011682018060405250810190610169919061023d565b5073ffffffffffffffffffffffffffffffffffffffff821660009081526020819052604090205461019b90829061025f565b73ffffffffffffffffffffffffffffffffffffffff90921660009081526020819052604090209190915550565b803573ffffffffffffffffffffffffffffffffffffffff811681146101ec57600080fd5b919050565b60006020828403121561020357600080fd5b61020c826101c8565b9392505050565b6000806040838503121561022657600080fd5b61022f836101c8565b946020939093013593505050565b60006020828403121561024f57600080fd5b8151801515811461020c57600080fd5b80820180821115610299577f4e487b7100000000000000000000000000000000000000000000000000000000600052601160045260246000fd5b9291505056fea2646970667358221220c3d0e56ba0f465edade558804a1c8e94b9c27d4c5ac883a40eebb1b4bf29fb6f64736f6c63430008190033",
  "devdoc": {
    "kind": "dev",
    "methods": {},
    "version": 1
  },
  "userdoc": {
    "kind": "user",
    "methods": {},
    "version": 1
  },
  "storageLayout": {
    "storage": [
      {
        "astId": 1669,
        "contract": "contracts/MaplePool.sol:MaplePool",
        "label": "balances",
        "offset": 0,
        "slot": "0",
        "type": "t_mapping(t_address,t_uint256)"
      }
    ],
    "types": {
      "t_address": {
        "encoding": "inplace",
        "label": "address",
        "numberOfBytes": "20"
      },
      "t_mapping(t_address,t_uint256)": {
        "encoding": "mapping",
        "key": "t_address",
        "label": "mapping(address => uint256)",
        "numberOfBytes": "32",
        "value": "t_uint256"
      },
      "t_uint256": {
        "encoding": "inplace",
        "label": "uint256",
        "numberOfBytes": "32"
      }
    }
  }
}